{
  "contractName": "FulcrumToken",
  "abi": [
    {
      "constant": true,
      "inputs": [],
      "name": "name",
      "outputs": [
        {
          "name": "",
          "type": "string"
        }
      ],
      "payable": false,
      "stateMutability": "view",
      "type": "function"
    },
    {
      "constant": true,
      "inputs": [],
      "name": "fundsWallet",
      "outputs": [
        {
          "name": "",
          "type": "address"
        }
      ],
      "payable": false,
      "stateMutability": "view",
      "type": "function"
    },
    {
      "constant": true,
      "inputs": [],
      "name": "icoDuration",
      "outputs": [
        {
          "name": "",
          "type": "uint256"
        }
      ],
      "payable": false,
      "stateMutability": "view",
      "type": "function"
    },
    {
      "constant": true,
      "inputs": [
        {
          "name": "",
          "type": "address"
        }
      ],
      "name": "balances",
      "outputs": [
        {
          "name": "",
          "type": "uint256"
        }
      ],
      "payable": false,
      "stateMutability": "view",
      "type": "function"
    },
    {
      "constant": true,
      "inputs": [],
      "name": "TOKEN_TOTAL_ALLOCATION",
      "outputs": [
        {
          "name": "",
          "type": "uint256"
        }
      ],
      "payable": false,
      "stateMutability": "view",
      "type": "function"
    },
    {
      "constant": true,
      "inputs": [],
      "name": "tokenPriceDiscount",
      "outputs": [
        {
          "name": "",
          "type": "uint256"
        }
      ],
      "payable": false,
      "stateMutability": "view",
      "type": "function"
    },
    {
      "constant": true,
      "inputs": [],
      "name": "decimals",
      "outputs": [
        {
          "name": "",
          "type": "uint256"
        }
      ],
      "payable": false,
      "stateMutability": "view",
      "type": "function"
    },
    {
      "constant": true,
      "inputs": [],
      "name": "HARD_CAP",
      "outputs": [
        {
          "name": "",
          "type": "uint256"
        }
      ],
      "payable": false,
      "stateMutability": "view",
      "type": "function"
    },
    {
      "constant": true,
      "inputs": [],
      "name": "tokenPrice",
      "outputs": [
        {
          "name": "",
          "type": "uint256"
        }
      ],
      "payable": false,
      "stateMutability": "view",
      "type": "function"
    },
    {
      "constant": true,
      "inputs": [],
      "name": "owner",
      "outputs": [
        {
          "name": "",
          "type": "address"
        }
      ],
      "payable": false,
      "stateMutability": "view",
      "type": "function"
    },
    {
      "constant": true,
      "inputs": [],
      "name": "symbol",
      "outputs": [
        {
          "name": "",
          "type": "string"
        }
      ],
      "payable": false,
      "stateMutability": "view",
      "type": "function"
    },
    {
      "constant": true,
      "inputs": [],
      "name": "SOFT_CAP",
      "outputs": [
        {
          "name": "",
          "type": "uint256"
        }
      ],
      "payable": false,
      "stateMutability": "view",
      "type": "function"
    },
    {
      "constant": true,
      "inputs": [],
      "name": "totalRaised",
      "outputs": [
        {
          "name": "",
          "type": "uint256"
        }
      ],
      "payable": false,
      "stateMutability": "view",
      "type": "function"
    },
    {
      "constant": true,
      "inputs": [],
      "name": "discountRate",
      "outputs": [
        {
          "name": "",
          "type": "uint256"
        }
      ],
      "payable": false,
      "stateMutability": "view",
      "type": "function"
    },
    {
      "constant": true,
      "inputs": [],
      "name": "startTimestamp",
      "outputs": [
        {
          "name": "",
          "type": "uint256"
        }
      ],
      "payable": false,
      "stateMutability": "view",
      "type": "function"
    },
    {
      "constant": false,
      "inputs": [
        {
          "name": "newOwner",
          "type": "address"
        }
      ],
      "name": "transferOwnership",
      "outputs": [],
      "payable": false,
      "stateMutability": "nonpayable",
      "type": "function"
    },
    {
      "inputs": [
        {
          "name": "_fundsWallet",
          "type": "address"
        },
        {
          "name": "_usdPrice",
          "type": "uint256"
        },
        {
          "name": "_icoDuration",
          "type": "uint256"
        }
      ],
      "payable": false,
      "stateMutability": "nonpayable",
      "type": "constructor"
    },
    {
      "payable": true,
      "stateMutability": "payable",
      "type": "fallback"
    },
    {
      "anonymous": false,
      "inputs": [
        {
          "indexed": true,
          "name": "from",
          "type": "address"
        },
        {
          "indexed": true,
          "name": "to",
          "type": "address"
        },
        {
          "indexed": false,
          "name": "value",
          "type": "uint256"
        }
      ],
      "name": "Transfer",
      "type": "event"
    },
    {
      "anonymous": false,
      "inputs": [
        {
          "indexed": true,
          "name": "owner",
          "type": "address"
        },
        {
          "indexed": true,
          "name": "spender",
          "type": "address"
        },
        {
          "indexed": false,
          "name": "value",
          "type": "uint256"
        }
      ],
      "name": "Approval",
      "type": "event"
    },
    {
      "constant": false,
      "inputs": [],
      "name": "distribute",
      "outputs": [],
      "payable": false,
      "stateMutability": "nonpayable",
      "type": "function"
    },
    {
      "constant": false,
      "inputs": [
        {
          "name": "_tokenPrice",
          "type": "uint256"
        }
      ],
      "name": "setTokenPrice",
      "outputs": [],
      "payable": false,
      "stateMutability": "nonpayable",
      "type": "function"
    },
    {
      "constant": true,
      "inputs": [],
      "name": "totalSupply",
      "outputs": [
        {
          "name": "",
          "type": "uint256"
        }
      ],
      "payable": false,
      "stateMutability": "view",
      "type": "function"
    },
    {
      "constant": true,
      "inputs": [
        {
          "name": "_owner",
          "type": "address"
        }
      ],
      "name": "balanceOf",
      "outputs": [
        {
          "name": "",
          "type": "uint256"
        }
      ],
      "payable": false,
      "stateMutability": "view",
      "type": "function"
    },
    {
      "constant": true,
      "inputs": [
        {
          "name": "_owner",
          "type": "address"
        },
        {
          "name": "_spender",
          "type": "address"
        }
      ],
      "name": "allowance",
      "outputs": [
        {
          "name": "",
          "type": "uint256"
        }
      ],
      "payable": false,
      "stateMutability": "view",
      "type": "function"
    },
    {
      "constant": false,
      "inputs": [
        {
          "name": "_to",
          "type": "address"
        },
        {
          "name": "_value",
          "type": "uint256"
        }
      ],
      "name": "transfer",
      "outputs": [
        {
          "name": "",
          "type": "bool"
        }
      ],
      "payable": false,
      "stateMutability": "nonpayable",
      "type": "function"
    },
    {
      "constant": false,
      "inputs": [
        {
          "name": "_spender",
          "type": "address"
        },
        {
          "name": "_value",
          "type": "uint256"
        }
      ],
      "name": "approve",
      "outputs": [
        {
          "name": "",
          "type": "bool"
        }
      ],
      "payable": false,
      "stateMutability": "nonpayable",
      "type": "function"
    },
    {
      "constant": false,
      "inputs": [
        {
          "name": "_from",
          "type": "address"
        },
        {
          "name": "_to",
          "type": "address"
        },
        {
          "name": "_value",
          "type": "uint256"
        }
      ],
      "name": "transferFrom",
      "outputs": [
        {
          "name": "",
          "type": "bool"
        }
      ],
      "payable": false,
      "stateMutability": "nonpayable",
      "type": "function"
    },
    {
      "constant": false,
      "inputs": [
        {
          "name": "_spender",
          "type": "address"
        },
        {
          "name": "_addedValue",
          "type": "uint256"
        }
      ],
      "name": "increaseApproval",
      "outputs": [
        {
          "name": "",
          "type": "bool"
        }
      ],
      "payable": false,
      "stateMutability": "nonpayable",
      "type": "function"
    },
    {
      "constant": false,
      "inputs": [
        {
          "name": "_spender",
          "type": "address"
        },
        {
          "name": "_subtractedValue",
          "type": "uint256"
        }
      ],
      "name": "decreaseApproval",
      "outputs": [
        {
          "name": "",
          "type": "bool"
        }
      ],
      "payable": false,
      "stateMutability": "nonpayable",
      "type": "function"
    }
  ],
  "bytecode": "0x60806040526040805190810160405280600d81526020017f46756c6372756d20546f6b656e0000000000000000000000000000000000000081525060019080519060200190620000519291906200027d565b506040805190810160405280600481526020017f46554c4300000000000000000000000000000000000000000000000000000000815250600290805190602001906200009f9291906200027d565b50600060075560006008556000600b55348015620000bc57600080fd5b5060405160608062002210833981018060405281019080805190602001909291908051906020019092919080519060200190929190505050336000806101000a81548173ffffffffffffffffffffffffffffffffffffffff021916908373ffffffffffffffffffffffffffffffffffffffff1602179055506012600a0a6308f0d18002600c60003073ffffffffffffffffffffffffffffffffffffffff1673ffffffffffffffffffffffffffffffffffffffff16815260200190815260200160002081905550620001b96012600a0a6308f0d180026012600a0a6317d78400026200025b6401000000000262001e87179091906401000000009004565b600c60008573ffffffffffffffffffffffffffffffffffffffff1673ffffffffffffffffffffffffffffffffffffffff1681526020019081526020016000208190555082600960006101000a81548173ffffffffffffffffffffffffffffffffffffffff021916908373ffffffffffffffffffffffffffffffffffffffff1602179055508160038190555042600581905550806006819055505050506200032c565b6000808383111515156200026e57600080fd5b82840390508091505092915050565b828054600181600116156101000203166002900490600052602060002090601f016020900481019282601f10620002c057805160ff1916838001178555620002f1565b82800160010185558215620002f1579182015b82811115620002f0578251825591602001919060010190620002d3565b5b50905062000300919062000304565b5090565b6200032991905b80821115620003255760008160009055506001016200030b565b5090565b90565b611ed4806200033c6000396000f300608060405260043610610154576000357c0100000000000000000000000000000000000000000000000000000000900463ffffffff16806306fdde031461030d578063095ea7b31461039d57806318160ddd146104025780632194f3a21461042d57806323b872dd14610484578063257877471461050957806327e235e314610534578063297042d31461058b5780632be8ccfd146105b6578063313ce567146105e15780633a03171c1461060c57806366188463146106375780636a61e5fc1461069c57806370a08231146106c95780637ff9b596146107205780638da5cb5b1461074b57806395d89b41146107a2578063a9059cbb14610832578063b652dc2f14610897578063c5c4744c146108c2578063d73dd623146108ed578063dd62ed3e14610952578063e4fc6b6d146109c9578063e6c0e6d5146109e0578063e6fd48bc14610a0b578063f2fde38b14610a36575b600060065460055401421115801561017757506012600a0a6308f0d18002600854105b8061018c57506012600a0a620f424002600854105b151561019757600080fd5b61019f610a79565b6101ca6004546101bc6012600a0a34610b2e90919063ffffffff16565b610b6c90919063ffffffff16565b90506000600c60003373ffffffffffffffffffffffffffffffffffffffff1673ffffffffffffffffffffffffffffffffffffffff16815260200190815260200160002054141561027b5733600a6000600b54815260200190815260200160002060006101000a81548173ffffffffffffffffffffffffffffffffffffffff021916908373ffffffffffffffffffffffffffffffffffffffff160217905550600b600081548092919060010191905055505b6102853382610b96565b5061029b81600854610dbb90919063ffffffff16565b600881905550600960009054906101000a900473ffffffffffffffffffffffffffffffffffffffff1673ffffffffffffffffffffffffffffffffffffffff166108fc349081150290604051600060405180830381858888f19350505050158015610309573d6000803e3d6000fd5b5050005b34801561031957600080fd5b50610322610ddc565b6040518080602001828103825283818151815260200191508051906020019080838360005b83811015610362578082015181840152602081019050610347565b50505050905090810190601f16801561038f5780820380516001836020036101000a031916815260200191505b509250505060405180910390f35b3480156103a957600080fd5b506103e8600480360381019080803573ffffffffffffffffffffffffffffffffffffffff16906020019092919080359060200190929190505050610e7a565b604051808215151515815260200191505060405180910390f35b34801561040e57600080fd5b50610417610f6c565b6040518082815260200191505060405180910390f35b34801561043957600080fd5b50610442610f7e565b604051808273ffffffffffffffffffffffffffffffffffffffff1673ffffffffffffffffffffffffffffffffffffffff16815260200191505060405180910390f35b34801561049057600080fd5b506104ef600480360381019080803573ffffffffffffffffffffffffffffffffffffffff169060200190929190803573ffffffffffffffffffffffffffffffffffffffff16906020019092919080359060200190929190505050610fa4565b604051808215151515815260200191505060405180910390f35b34801561051557600080fd5b5061051e611364565b6040518082815260200191505060405180910390f35b34801561054057600080fd5b50610575600480360381019080803573ffffffffffffffffffffffffffffffffffffffff16906020019092919050505061136a565b6040518082815260200191505060405180910390f35b34801561059757600080fd5b506105a0611382565b6040518082815260200191505060405180910390f35b3480156105c257600080fd5b506105cb611390565b6040518082815260200191505060405180910390f35b3480156105ed57600080fd5b506105f6611396565b6040518082815260200191505060405180910390f35b34801561061857600080fd5b5061062161139b565b6040518082815260200191505060405180910390f35b34801561064357600080fd5b50610682600480360381019080803573ffffffffffffffffffffffffffffffffffffffff169060200190929190803590602001909291905050506113a9565b604051808215151515815260200191505060405180910390f35b3480156106a857600080fd5b506106c76004803603810190808035906020019092919050505061163b565b005b3480156106d557600080fd5b5061070a600480360381019080803573ffffffffffffffffffffffffffffffffffffffff1690602001909291905050506116a8565b6040518082815260200191505060405180910390f35b34801561072c57600080fd5b506107356116f1565b6040518082815260200191505060405180910390f35b34801561075757600080fd5b506107606116f7565b604051808273ffffffffffffffffffffffffffffffffffffffff1673ffffffffffffffffffffffffffffffffffffffff16815260200191505060405180910390f35b3480156107ae57600080fd5b506107b761171c565b6040518080602001828103825283818151815260200191508051906020019080838360005b838110156107f75780820151818401526020810190506107dc565b50505050905090810190601f1680156108245780820380516001836020036101000a031916815260200191505b509250505060405180910390f35b34801561083e57600080fd5b5061087d600480360381019080803573ffffffffffffffffffffffffffffffffffffffff16906020019092919080359060200190929190505050610b96565b604051808215151515815260200191505060405180910390f35b3480156108a357600080fd5b506108ac6117ba565b6040518082815260200191505060405180910390f35b3480156108ce57600080fd5b506108d76117c7565b6040518082815260200191505060405180910390f35b3480156108f957600080fd5b50610938600480360381019080803573ffffffffffffffffffffffffffffffffffffffff169060200190929190803590602001909291905050506117cd565b604051808215151515815260200191505060405180910390f35b34801561095e57600080fd5b506109b3600480360381019080803573ffffffffffffffffffffffffffffffffffffffff169060200190929190803573ffffffffffffffffffffffffffffffffffffffff1690602001909291905050506119c9565b6040518082815260200191505060405180910390f35b3480156109d557600080fd5b506109de611a50565b005b3480156109ec57600080fd5b506109f5611d8e565b6040518082815260200191505060405180910390f35b348015610a1757600080fd5b50610a20611d94565b6040518082815260200191505060405180910390f35b348015610a4257600080fd5b50610a77600480360381019080803573ffffffffffffffffffffffffffffffffffffffff169060200190929190505050611d9a565b005b4262015180600554011115610aaa576014600754141515610aa5576014600781905550610aa4611e38565b5b610b2c565b426202a300600554011115610adb57600f600754141515610ad657600f600781905550610ad5611e38565b5b610b2b565b4262054600600554011115610b0c57600a600754141515610b0757600a600781905550610b06611e38565b5b610b2a565b6000600754141515610b29576000600781905550610b28611e38565b5b5b5b5b565b6000806000841415610b435760009150610b65565b8284029050828482811515610b5457fe5b04141515610b6157600080fd5b8091505b5092915050565b600080600083111515610b7e57600080fd5b8284811515610b8957fe5b0490508091505092915050565b6000600c60003073ffffffffffffffffffffffffffffffffffffffff1673ffffffffffffffffffffffffffffffffffffffff168152602001908152602001600020548211151515610be657600080fd5b600073ffffffffffffffffffffffffffffffffffffffff168373ffffffffffffffffffffffffffffffffffffffff1614151515610c2257600080fd5b610c7482600c60003073ffffffffffffffffffffffffffffffffffffffff1673ffffffffffffffffffffffffffffffffffffffff16815260200190815260200160002054611e8790919063ffffffff16565b600c60003073ffffffffffffffffffffffffffffffffffffffff1673ffffffffffffffffffffffffffffffffffffffff16815260200190815260200160002081905550610d0982600c60008673ffffffffffffffffffffffffffffffffffffffff1673ffffffffffffffffffffffffffffffffffffffff16815260200190815260200160002054610dbb90919063ffffffff16565b600c60008573ffffffffffffffffffffffffffffffffffffffff1673ffffffffffffffffffffffffffffffffffffffff168152602001908152602001600020819055508273ffffffffffffffffffffffffffffffffffffffff163073ffffffffffffffffffffffffffffffffffffffff167fddf252ad1be2c89b69c2b068fc378daa952ba7f163c4a11628f55a4df523b3ef846040518082815260200191505060405180910390a36001905092915050565b6000808284019050838110151515610dd257600080fd5b8091505092915050565b60018054600181600116156101000203166002900480601f016020809104026020016040519081016040528092919081815260200182805460018160011615610100020316600290048015610e725780601f10610e4757610100808354040283529160200191610e72565b820191906000526020600020905b815481529060010190602001808311610e5557829003601f168201915b505050505081565b600081600d60003373ffffffffffffffffffffffffffffffffffffffff1673ffffffffffffffffffffffffffffffffffffffff16815260200190815260200160002060008573ffffffffffffffffffffffffffffffffffffffff1673ffffffffffffffffffffffffffffffffffffffff168152602001908152602001600020819055508273ffffffffffffffffffffffffffffffffffffffff163373ffffffffffffffffffffffffffffffffffffffff167f8c5be1e5ebec7d5bd14f71427d1e84f3dd0314c0f7b2291e5b200ac8c7c3b925846040518082815260200191505060405180910390a36001905092915050565b60006012600a0a6317d7840002905090565b600960009054906101000a900473ffffffffffffffffffffffffffffffffffffffff1681565b6000600c60008573ffffffffffffffffffffffffffffffffffffffff1673ffffffffffffffffffffffffffffffffffffffff168152602001908152602001600020548211151515610ff457600080fd5b600d60008573ffffffffffffffffffffffffffffffffffffffff1673ffffffffffffffffffffffffffffffffffffffff16815260200190815260200160002060003373ffffffffffffffffffffffffffffffffffffffff1673ffffffffffffffffffffffffffffffffffffffff16815260200190815260200160002054821115151561107f57600080fd5b600073ffffffffffffffffffffffffffffffffffffffff168373ffffffffffffffffffffffffffffffffffffffff16141515156110bb57600080fd5b61110d82600c60008773ffffffffffffffffffffffffffffffffffffffff1673ffffffffffffffffffffffffffffffffffffffff16815260200190815260200160002054611e8790919063ffffffff16565b600c60008673ffffffffffffffffffffffffffffffffffffffff1673ffffffffffffffffffffffffffffffffffffffff168152602001908152602001600020819055506111a282600c60008673ffffffffffffffffffffffffffffffffffffffff1673ffffffffffffffffffffffffffffffffffffffff16815260200190815260200160002054610dbb90919063ffffffff16565b600c60008573ffffffffffffffffffffffffffffffffffffffff1673ffffffffffffffffffffffffffffffffffffffff1681526020019081526020016000208190555061127482600d60008773ffffffffffffffffffffffffffffffffffffffff1673ffffffffffffffffffffffffffffffffffffffff16815260200190815260200160002060003373ffffffffffffffffffffffffffffffffffffffff1673ffffffffffffffffffffffffffffffffffffffff16815260200190815260200160002054611e8790919063ffffffff16565b600d60008673ffffffffffffffffffffffffffffffffffffffff1673ffffffffffffffffffffffffffffffffffffffff16815260200190815260200160002060003373ffffffffffffffffffffffffffffffffffffffff1673ffffffffffffffffffffffffffffffffffffffff168152602001908152602001600020819055508273ffffffffffffffffffffffffffffffffffffffff168473ffffffffffffffffffffffffffffffffffffffff167fddf252ad1be2c89b69c2b068fc378daa952ba7f163c4a11628f55a4df523b3ef846040518082815260200191505060405180910390a3600190509392505050565b60065481565b600c6020528060005260406000206000915090505481565b6012600a0a6317d784000281565b60045481565b601281565b6012600a0a6308f0d1800281565b600080600d60003373ffffffffffffffffffffffffffffffffffffffff1673ffffffffffffffffffffffffffffffffffffffff16815260200190815260200160002060008573ffffffffffffffffffffffffffffffffffffffff1673ffffffffffffffffffffffffffffffffffffffff16815260200190815260200160002054905080831015156114bb576000600d60003373ffffffffffffffffffffffffffffffffffffffff1673ffffffffffffffffffffffffffffffffffffffff16815260200190815260200160002060008673ffffffffffffffffffffffffffffffffffffffff1673ffffffffffffffffffffffffffffffffffffffff1681526020019081526020016000208190555061154f565b6114ce8382611e8790919063ffffffff16565b600d60003373ffffffffffffffffffffffffffffffffffffffff1673ffffffffffffffffffffffffffffffffffffffff16815260200190815260200160002060008673ffffffffffffffffffffffffffffffffffffffff1673ffffffffffffffffffffffffffffffffffffffff168152602001908152602001600020819055505b8373ffffffffffffffffffffffffffffffffffffffff163373ffffffffffffffffffffffffffffffffffffffff167f8c5be1e5ebec7d5bd14f71427d1e84f3dd0314c0f7b2291e5b200ac8c7c3b925600d60003373ffffffffffffffffffffffffffffffffffffffff1673ffffffffffffffffffffffffffffffffffffffff16815260200190815260200160002060008873ffffffffffffffffffffffffffffffffffffffff1673ffffffffffffffffffffffffffffffffffffffff168152602001908152602001600020546040518082815260200191505060405180910390a3600191505092915050565b6000809054906101000a900473ffffffffffffffffffffffffffffffffffffffff1673ffffffffffffffffffffffffffffffffffffffff163373ffffffffffffffffffffffffffffffffffffffff1614151561169657600080fd5b80600381905550601e60078190555050565b6000600c60008373ffffffffffffffffffffffffffffffffffffffff1673ffffffffffffffffffffffffffffffffffffffff168152602001908152602001600020549050919050565b60035481565b6000809054906101000a900473ffffffffffffffffffffffffffffffffffffffff1681565b60028054600181600116156101000203166002900480601f0160208091040260200160405190810160405280929190818152602001828054600181600116156101000203166002900480156117b25780601f10611787576101008083540402835291602001916117b2565b820191906000526020600020905b81548152906001019060200180831161179557829003601f168201915b505050505081565b6012600a0a620f42400281565b60085481565b600061185e82600d60003373ffffffffffffffffffffffffffffffffffffffff1673ffffffffffffffffffffffffffffffffffffffff16815260200190815260200160002060008673ffffffffffffffffffffffffffffffffffffffff1673ffffffffffffffffffffffffffffffffffffffff16815260200190815260200160002054610dbb90919063ffffffff16565b600d60003373ffffffffffffffffffffffffffffffffffffffff1673ffffffffffffffffffffffffffffffffffffffff16815260200190815260200160002060008573ffffffffffffffffffffffffffffffffffffffff1673ffffffffffffffffffffffffffffffffffffffff168152602001908152602001600020819055508273ffffffffffffffffffffffffffffffffffffffff163373ffffffffffffffffffffffffffffffffffffffff167f8c5be1e5ebec7d5bd14f71427d1e84f3dd0314c0f7b2291e5b200ac8c7c3b925600d60003373ffffffffffffffffffffffffffffffffffffffff1673ffffffffffffffffffffffffffffffffffffffff16815260200190815260200160002060008773ffffffffffffffffffffffffffffffffffffffff1673ffffffffffffffffffffffffffffffffffffffff168152602001908152602001600020546040518082815260200191505060405180910390a36001905092915050565b6000600d60008473ffffffffffffffffffffffffffffffffffffffff1673ffffffffffffffffffffffffffffffffffffffff16815260200190815260200160002060008373ffffffffffffffffffffffffffffffffffffffff1673ffffffffffffffffffffffffffffffffffffffff16815260200190815260200160002054905092915050565b6000806000806012600a0a6308f0d18002600854101580611a8e5750600654600554014210158015611a8d57506012600a0a620f42400260085410155b5b1515611a9957600080fd5b6000600c60003073ffffffffffffffffffffffffffffffffffffffff1673ffffffffffffffffffffffffffffffffffffffff16815260200190815260200160002054111515611ae757600080fd5b600c60003073ffffffffffffffffffffffffffffffffffffffff1673ffffffffffffffffffffffffffffffffffffffff168152602001908152602001600020549350611b46846012600a0a6308f0d18002611e8790919063ffffffff16565b9250600091505b600b5482108015611b9d57506000600c60003073ffffffffffffffffffffffffffffffffffffffff1673ffffffffffffffffffffffffffffffffffffffff16815260200190815260200160002054115b15611d8857600c6000600a600085815260200190815260200160002060009054906101000a900473ffffffffffffffffffffffffffffffffffffffff1673ffffffffffffffffffffffffffffffffffffffff1673ffffffffffffffffffffffffffffffffffffffff168152602001908152602001600020549050600081118015611c8657503073ffffffffffffffffffffffffffffffffffffffff16600a600084815260200190815260200160002060009054906101000a900473ffffffffffffffffffffffffffffffffffffffff1673ffffffffffffffffffffffffffffffffffffffff1614155b8015611d135750600960009054906101000a900473ffffffffffffffffffffffffffffffffffffffff1673ffffffffffffffffffffffffffffffffffffffff16600a600084815260200190815260200160002060009054906101000a900473ffffffffffffffffffffffffffffffffffffffff1673ffffffffffffffffffffffffffffffffffffffff1614155b15611d7b57611d79600a600084815260200190815260200160002060009054906101000a900473ffffffffffffffffffffffffffffffffffffffff16611d7485611d668589610b2e90919063ffffffff16565b610b6c90919063ffffffff16565b610b96565b505b8180600101925050611b4d565b50505050565b60075481565b60055481565b6000809054906101000a900473ffffffffffffffffffffffffffffffffffffffff1673ffffffffffffffffffffffffffffffffffffffff163373ffffffffffffffffffffffffffffffffffffffff16141515611df557600080fd5b806000806101000a81548173ffffffffffffffffffffffffffffffffffffffff021916908373ffffffffffffffffffffffffffffffffffffffff16021790555050565b60006007541115611e7b57611e706064611e62600754606403600354610b2e90919063ffffffff16565b610b6c90919063ffffffff16565b600481905550611e85565b6003546004819055505b565b600080838311151515611e9957600080fd5b828403905080915050929150505600a165627a7a72305820f6fd1bcf84a47521968be133b30ff136391fec8e7a1ddca679e1b8066f3cd1280029",
  "source": "pragma solidity ^0.4.24;\n\nimport \"./ERC20.sol\";\nimport \"./Owned.sol\";\n\n/**\n * @title SafeMath\n * @dev Math operations with safety checks that revert on error\n */\nlibrary SafeMath {\n\n    /**\n    * @dev Multiplies two numbers, reverts on overflow.\n    */\n    function mul(uint256 _a, uint256 _b) internal pure returns (uint256) {\n        // Gas optimization: this is cheaper than requiring 'a' not being zero, but the\n        // benefit is lost if 'b' is also tested.\n        // See: https://github.com/OpenZeppelin/openzeppelin-solidity/pull/522\n        if (_a == 0) {\n            return 0;\n        }\n\n        uint256 c = _a * _b;\n        require(c / _a == _b);\n\n        return c;\n    }\n\n    /**\n    * @dev Integer division of two numbers truncating the quotient, reverts on division by zero.\n    */\n    function div(uint256 _a, uint256 _b) internal pure returns (uint256) {\n        require(_b > 0); // Solidity only automatically asserts when dividing by 0\n        uint256 c = _a / _b;\n        // assert(_a == _b * c + _a % _b); // There is no case in which this doesn't hold\n\n        return c;\n    }\n\n    /**\n    * @dev Subtracts two numbers, reverts on overflow (i.e. if subtrahend is greater than minuend).\n    */\n    function sub(uint256 _a, uint256 _b) internal pure returns (uint256) {\n        require(_b <= _a);\n        uint256 c = _a - _b;\n\n        return c;\n    }\n\n    /**\n    * @dev Adds two numbers, reverts on overflow.\n    */\n    function add(uint256 _a, uint256 _b) internal pure returns (uint256) {\n        uint256 c = _a + _b;\n        require(c >= _a);\n\n        return c;\n    }\n\n    /**\n    * @dev Divides two numbers and returns the remainder (unsigned integer modulo),\n    * reverts when dividing by zero.\n    */\n    function mod(uint256 a, uint256 b) internal pure returns (uint256) {\n        require(b != 0);\n        return a % b;\n    }\n}\n\ncontract FulcrumToken is ERC20, Owned {\n    using SafeMath for uint256;\n\n    string public name = \"Fulcrum Token\";\n    string public symbol = \"FULC\";\n    uint256 public constant decimals = 18;\n    uint256 public tokenPrice;\n    uint256 public tokenPriceDiscount;\n\n    uint public startTimestamp;\n    uint public icoDuration;\n\n    uint256 public discountRate = 0;\n\n    uint256 public totalRaised = 0;\n    address public fundsWallet;\n    \n    uint256 public constant TOKEN_TOTAL_ALLOCATION = 400 * (10**6) * (10**decimals);  \n    uint256 public constant HARD_CAP = 150 * (10**6) * (10**decimals);\n    uint256 public constant SOFT_CAP = 1 * (10**6) * (10**decimals);\n\n    mapping (uint256 => address) private balancesId;\n    uint256 private balancesIdIndex = 0;\n    mapping (address => uint256) public balances;\n    mapping (address => mapping (address => uint256)) private allowed;\n    \n    constructor(address _fundsWallet, uint256 _usdPrice, uint _icoDuration) public {\n        balances[address(this)] = HARD_CAP;\n        balances[_fundsWallet] = TOKEN_TOTAL_ALLOCATION.sub(HARD_CAP);\n        fundsWallet = _fundsWallet;\n        tokenPrice = _usdPrice;\n        startTimestamp = now;\n        icoDuration = _icoDuration;\n    }\n    \n    function () isIcoOpen public payable {\n        calculateDiscount();\n        uint256 tokenAmount = msg.value.mul(10**decimals).div(tokenPriceDiscount);\n        if (balances[msg.sender] == 0) {\n            balancesId[balancesIdIndex] = msg.sender;\n            balancesIdIndex++;\n        }\n        transfer(msg.sender, tokenAmount);\n        totalRaised = totalRaised.add(tokenAmount);\n        fundsWallet.transfer(msg.value);\n    }\n\n    modifier isIcoOpen() {\n        require((now <= (startTimestamp + icoDuration) && totalRaised < HARD_CAP) || totalRaised < SOFT_CAP);\n        _;\n    }\n\n    modifier isIcoFinished() {\n        require(totalRaised >= HARD_CAP || (now >= (startTimestamp + icoDuration) && totalRaised >= SOFT_CAP));\n        _;\n    }\n\n    modifier isTokenLeft() {\n        require(balances[address(this)] > 0);\n        _;\n    }\n\n    function calculateDiscount() private {\n        if (startTimestamp + 1 days > now) {\n            if (discountRate != 20) {\n                discountRate = 20;\n                updateDiscountPrice();\n            }\n        } else if (startTimestamp + 2 days > now) {\n            if (discountRate != 15) {\n                discountRate = 15;\n                updateDiscountPrice();\n            }\n        } else if (startTimestamp + 4 days > now) {\n            if (discountRate != 10) {\n                discountRate = 10;\n                updateDiscountPrice();\n            }\n        } else {\n            if (discountRate != 0) {\n                discountRate = 0;\n                updateDiscountPrice();\n            }\n        }\n    }\n\n    function updateDiscountPrice() private {\n        if (discountRate > 0) {\n            tokenPriceDiscount = tokenPrice.mul(100 - discountRate).div(uint256(100));\n        } else {\n            tokenPriceDiscount = tokenPrice;\n        }\n    }\n\n    function distribute() isIcoFinished isTokenLeft public {\n        uint256 tokenLeft = balances[address(this)];\n        uint256 tokenSold = HARD_CAP.sub(tokenLeft);\n        for (uint256 i = 0; i < balancesIdIndex && balances[address(this)] > 0; i++) {\n            uint256 balance = balances[balancesId[i]];\n            if (balance > 0 && balancesId[i] != address(this) && balancesId[i] != fundsWallet) {\n                transfer(balancesId[i], tokenLeft.mul(balance).div(tokenSold));\n            }\n        }\n    }\n\n    function setTokenPrice(uint256 _tokenPrice) onlyOwner public {\n        tokenPrice = _tokenPrice;\n        discountRate = 30; //for discount recalculate\n    }\n\n    /**\n    * @dev Total number of tokens in existence\n    */\n    function totalSupply() public view returns (uint256) {\n        return TOKEN_TOTAL_ALLOCATION;\n    }\n\n    /**\n    * @dev Gets the balance of the specified address.\n    * @param _owner The address to query the the balance of.\n    * @return An uint256 representing the amount owned by the passed address.\n    */\n    function balanceOf(address _owner) public view returns (uint256) {\n        return balances[_owner];\n    }\n\n    /**\n    * @dev Function to check the amount of tokens that an owner allowed to a spender.\n    * @param _owner address The address which owns the funds.\n    * @param _spender address The address which will spend the funds.\n    * @return A uint256 specifying the amount of tokens still available for the spender.\n    */\n    function allowance(\n        address _owner,\n        address _spender\n    )\n        public\n        view\n        returns (uint256)\n    {\n        return allowed[_owner][_spender];\n    }\n\n    /**\n    * @dev Transfer token for a specified address\n    * @param _to The address to transfer to.\n    * @param _value The amount to be transferred.\n    */\n    function transfer(address _to, uint256 _value) public returns (bool) {\n        require(_value <= balances[address(this)]);\n        require(_to != address(0));\n\n        balances[address(this)] = balances[address(this)].sub(_value);\n        balances[_to] = balances[_to].add(_value);\n        emit Transfer(address(this), _to, _value);\n        return true;\n    }\n\n    /**\n    * @dev Approve the passed address to spend the specified amount of tokens on behalf of msg.sender.\n    * Beware that changing an allowance with this method brings the risk that someone may use both the old\n    * and the new allowance by unfortunate transaction ordering. One possible solution to mitigate this\n    * race condition is to first reduce the spender's allowance to 0 and set the desired value afterwards:\n    * https://github.com/ethereum/EIPs/issues/20#issuecomment-263524729\n    * @param _spender The address which will spend the funds.\n    * @param _value The amount of tokens to be spent.\n    */\n    function approve(address _spender, uint256 _value) public returns (bool) {\n        allowed[msg.sender][_spender] = _value;\n        emit Approval(msg.sender, _spender, _value);\n        return true;\n    }\n\n    /**\n    * @dev Transfer tokens from one address to another\n    * @param _from address The address which you want to send tokens from\n    * @param _to address The address which you want to transfer to\n    * @param _value uint256 the amount of tokens to be transferred\n    */\n    function transferFrom(\n        address _from,\n        address _to,\n        uint256 _value\n    )\n        public\n        returns (bool)\n    {\n        require(_value <= balances[_from]);\n        require(_value <= allowed[_from][msg.sender]);\n        require(_to != address(0));\n\n        balances[_from] = balances[_from].sub(_value);\n        balances[_to] = balances[_to].add(_value);\n        allowed[_from][msg.sender] = allowed[_from][msg.sender].sub(_value);\n        emit Transfer(_from, _to, _value);\n        return true;\n    }\n\n    /**\n    * @dev Increase the amount of tokens that an owner allowed to a spender.\n    * approve should be called when allowed[_spender] == 0. To increment\n    * allowed value is better to use this function to avoid 2 calls (and wait until\n    * the first transaction is mined)\n    * From MonolithDAO Token.sol\n    * @param _spender The address which will spend the funds.\n    * @param _addedValue The amount of tokens to increase the allowance by.\n    */\n    function increaseApproval(\n        address _spender,\n        uint256 _addedValue\n    )\n        public\n        returns (bool)\n    {\n        allowed[msg.sender][_spender] = (\n        allowed[msg.sender][_spender].add(_addedValue));\n        emit Approval(msg.sender, _spender, allowed[msg.sender][_spender]);\n        return true;\n    }\n\n    /**\n    * @dev Decrease the amount of tokens that an owner allowed to a spender.\n    * approve should be called when allowed[_spender] == 0. To decrement\n    * allowed value is better to use this function to avoid 2 calls (and wait until\n    * the first transaction is mined)\n    * From MonolithDAO Token.sol\n    * @param _spender The address which will spend the funds.\n    * @param _subtractedValue The amount of tokens to decrease the allowance by.\n    */\n    function decreaseApproval(\n        address _spender,\n        uint256 _subtractedValue\n    )\n        public\n        returns (bool)\n    {\n        uint256 oldValue = allowed[msg.sender][_spender];\n        if (_subtractedValue >= oldValue) {\n            allowed[msg.sender][_spender] = 0;\n        } else {\n            allowed[msg.sender][_spender] = oldValue.sub(_subtractedValue);\n        }\n        emit Approval(msg.sender, _spender, allowed[msg.sender][_spender]);\n        return true;\n    }\n}\n",
  "sourcePath": "/home/user/token-sale-contracts/contracts/FulcrumToken.sol",
  "compiler": {
    "name": "solc",
    "version": "0.4.24+commit.e67f0147.Emscripten.clang"
  },
  "schemaVersion": "2.0.1",
  "updatedAt": "2018-08-23T14:58:49.811Z"
}